:100000000C9449030C9471030C9471030C947103C8
:100010000C9471030C9471030C9471030C94710390
:100020000C9471030C9471030C9471030C94710380
:100030000C9471030C9471030C9471030C94710370
:100040000C944B0A0C9471030C9471030C9471037F
:100050000C9471030C9471030C9471030C94710350
:100060000C94950A0C94710300000000003E5B4F55
:100070005B3E3E6B4F6B3E1C3E7C3E1C183C7E3C08
:10008000181C577D571C1C5E7F5E1C00183C180016
:10009000FFE7C3E7FF0018241800FFE7DBE7FF30A6
:1000A000483A060E2629792926407F050507407F14
:1000B00005253F5A3CE73C5A7F3E1C1C08081C1C87
:1000C0003E7F14227F22145F5F005F5F06097F017D
:1000D0007F006689956A606060606094A2FFA29468
:1000E00008047E040810207E201008082A1C080836
:1000F0001C2A08081E101010100C1E0C1E0C303884
:100100003E3830060E3E0E06000000000000005F84
:1001100000000007000700147F147F14242A7F2AA0
:100120001223130864623649562050000807030062
:10013000001C2241000041221C002A1C7F1C2A08AE
:10014000083E080800807030000808080808000011
:1001500060600020100804023E5149453E00427F85
:10016000400072494949462141494D331814127FD4
:100170001027454545393C4A494931412111090774
:100180003649494936464949291E000014000000F5
:1001900040340000000814224114141414140041C7
:1001A00022140802015909063E415D594E7C121184
:1001B000127C7F494949363E414141227F414141BC
:1001C0003E7F494949417F090909013E4141517337
:1001D0007F0808087F00417F41002040413F017FA8
:1001E000081422417F404040407F021C027F7F0470
:1001F00008107F3E4141413E7F090909063E4151B9
:10020000215E7F09192946264949493203017F01A8
:10021000033F4040403F1F2040201F3F4038403FA9
:10022000631408146303047804036159494D4300BF
:100230007F4141410204081020004141417F0402F6
:10024000010204404040404000030708002054548D
:1002500078407F284444383844444428384444286B
:100260007F385454541800087E090218A4A49C78BE
:100270007F0804047800447D40002040403D007F1A
:100280001028440000417F40007C047804787C08FA
:100290000404783844444438FC18242418182424CE
:1002A00018FC7C08040408485454542404043F44B3
:1002B000243C4040207C1C2040201C3C4030403CE2
:1002C00044281028444C9090907C4464544C440042
:1002D00008364100000077000000413608000201A6
:1002E0000204023C2623263C1EA1A161123A404092
:1002F000207A38545455592155557941225454780F
:1003000042215554784020545579400C1E527212A7
:100310003955555559395454545939555454580030
:1003200000457C410002457D420001457C407D1234
:1003300011127DF0282528F07C5455450020545496
:100340007C547C0A097F4932494949323A44444441
:100350003A324A4848303A4141217A3A424020787C
:10036000009DA0A07D3D4242423D3D4040403D3C7D
:1003700024FF2424487E4943662B2FFC2F2BFF09A2
:1003800029F620C0887E0903205454794100004496
:100390007D413048484A32384040227A007A0A0A81
:1003A000727D0D19317D2629292F282629292926F4
:1003B00030484D4020380808080808080808382F39
:1003C00010C8ACBA2F102834FA00007B00000814C3
:1003D0002A142222142A14085500550055AA55AA99
:1003E00055AAFF55FF55FF000000FF00101010FF39
:1003F00000141414FF001010FF00FF1010F010F094
:10040000141414FC001414F700FF0000FF00FF1484
:1004100014F404FC141417101F10101F101F1414D0
:10042000141F00101010F0000000001F101010101A
:100430001F10101010F010000000FF10101010100E
:1004400010101010FF10000000FF140000FF00FF4C
:1004500000001F10170000FC04F4141417101714E8
:1004600014F404F40000FF00F7141414141414140A
:10047000F700F7141414171410101F101F1414147D
:10048000F4141010F010F000001F101F0000001FE7
:1004900014000000FC140000F010F01010FF10FF1A
:1004A000141414FF141010101F00000000F010FFAF
:1004B000FFFFFFFFF0F0F0F0F0FFFFFF0000000093
:1004C00000FFFF0F0F0F0F0F3844443844FC4A4A17
:1004D0004A347E02020606027E027E0263554941CC
:1004E000633844443C04407E201E2006027E020203
:1004F00099A5E7A5991C2A492A1C4C7201724C3017
:100500004A4D4D303048784830BC625A463D3E49ED
:100510004949007E0101017E2A2A2A2A2A44445F91
:10052000444440514A444040444A51400000FF0185
:1005300003E080FF000008086B6B08361236243693
:10054000060F090F060000181800000010100030F8
:1005500040FF0101001F01011E00191D1712003C80
:100560003C3C3C000000000000000000250028008A
:100570002B0000000000240027002A0020204368F0
:10058000616E6E656C202020205253534900204D2F
:10059000487A005343414E00352E36352020202026
:1005A00020352E382020202020352E393500E91620
:1005B000D516C116AD169916851671165D166516F7
:1005C00078168B169E16B116C416D716EA1649165B
:1005D000351621160D16FD161117251739176C162D
:1005E00080169416A816BC16D016E416F8161A161D
:1005F0003F1664168916AE16D316F8161D1713206B
:10060000121121100722081806091905230A1A04D5
:100610000B1B03240C1C020D1D25010E1E000F1FB9
:100620002614152716172000200020202000200067
:10063000200020204368616E6E656C2020202052CF
:1006400053534900204D487A000000000023002643
:100650000029000404040404040404020202020247
:100660000203030303030301020408102040800176
:1006700002040810200102040810200000000800F5
:100680000201000003040700000000000000000059
:10069000391711241FBECFEFD8E0DEBFCDBF15E064
:1006A000A0E0B1E0E4EEF2E302C005900D92AA35BD
:1006B000B107D9F726E0AAE5B5E001C01D92A13443
:1006C000B207E1F713E0C9E4D3E004C02197FE01CB
:1006D0000E94AC17C834D107C9F70E940D130C94BF
:1006E00070190C9400003FB7F8948091A605909182
:1006F000A705A091A805B091A90526B5A89B05C09E
:100700002F3F19F00196A11DB11D3FBFBA2FA92F90
:10071000982F8827820F911DA11DB11DBC01CD010D
:1007200042E0660F771F881F991F4A95D1F70895F9
:1007300085ED8093BC008091BC0084FDFCCF1092BD
:10074000EE05089540917C05262F30E0240F311DE1
:1007500021323105DCF42091EE052430C9F4FC018E
:1007600080E090E0861758F430917C052191DC01FF
:10077000A65ABA4FA30FB11D2C930196F3CF8091C7
:100780007C05680F60937C0580E0089581E0089502
:1007900082E00895089581E090E03091AB052091CA
:1007A000AA05321710F480E090E0919581959109A7
:1007B00008958091AB059091AA05891730F48F5F59
:1007C0008093AB0580E090E008958FEF9FEF089550
:1007D0008091AA0590E02091AB05821B91090895B4
:1007E000CF92DF92EF92FF920F931F93CF93DF93FD
:1007F0007C01262F972F8A018091EF05882391F0A5
:10080000C62FD72F6E01C40ED51ECC15DD0571F095
:100810006991D701ED91FC910190F081E02DC70124
:100820000995F3CF642F822F0E94A203C801DF91A4
:10083000CF911F910F91FF90EF90DF90CF9008958F
:10084000CF93DF931F92CDB7DEB769832091EF0579
:100850002223D1F020911106203240F021E030E037
:10086000FC013383228380E090E015C08091F00585
:10087000E82FF0E0EF50FA4F998190838F5F8093DB
:10088000F0058093110605C061E0CE0101960E943B
:10089000A20381E090E00F90DF91CF910895089539
:1008A0002F923F924F925F926F927F928F929F9280
:1008B000AF92BF92CF92DF92EF92FF920F931F936E
:1008C000CF93DF93CDB7DEB76B970FB6F894DEBF4B
:1008D0000FBECDBF4C015A8349831F830E83FD8217
:1008E000EC82CB82DC0158964D915C915997411571
:1008F000510509F0A5C018968D919C91199768171C
:1009000079070CF05AC11A968D919C911B97E98139
:10091000FA81E817F9070CF050C1D12CCB013B81CB
:10092000F6E03F9F800D911D1124181619060CF05A
:1009300044C1C60133E0880F991F3A95E1F7498118
:100940005A81840F951F181619060CF036C1579658
:100950008C91811103C0203B08F02F5F55E0259F4B
:10096000900111247E876D875B01212CC901861BB4
:10097000970B99878887A981BA811896BB87AA8720
:10098000B5E02B1641F0E885F985EA0DFB1DE85925
:10099000FF4F349001C0312C69807A80230130FEF2
:1009A00012C0D401ED91FC91BB81B13031F40480CF
:1009B000F581E02D2E813F8118C00684F785E02D5A
:1009C000EE80FF801CC0EC81FD812E813F81E2170B
:1009D000F307E1F0D401ED91FC91BB81B13051F40A
:1009E0000480F581E02D2C813D81A301B501C40176
:1009F00009950CC00684F785E02DEC80FD8086010A
:100A00009601A2016D857E85C40109953694EFEFAC
:100A10006E1A7E0A4C0C5D1C2A853B856216730695
:100A200009F0BDCF23943FEFA31AB30A4D855E852D
:100A30004C0D5D1D5E874D8756E02512A1CFBDC0D0
:100A4000FA0134963491329785919491231BA7E053
:100A50002A9F800D911D1124FA01259134913A8B22
:100A6000298BFC0125903490FC0132963491388713
:100A7000319644914C873196E491FC013596A491CE
:100A8000319684915B81523050F06A2E0A2E000C10
:100A90007708E82F082E000CFF0BFB87EA87FB8105
:100AA000CF2ED12C6C9C90016D9C300D7C9C300D18
:100AB0001124A901460F571F588B4F871C82A12C68
:100AC000EA2FAA0FFF0B3B016E0E7F1E5885650FA4
:100AD000711DDB01AE0FBF1FBF8BAE8BE981FA81A9
:100AE000E80FF11D87FDFA95F98FE88F9C85A9160F
:100AF00008F063C08A2D90E04A855B85480F591F36
:100B00004C9D90014D9D300D5C9D300D1124A981AF
:100B1000BA81A20FB31FBE87AD877B8E6A8E4F84CA
:100B20005888BC81B619BB8BE88DF98DE80FF91F89
:100B3000FD8BEC8B8B89FA8D8F0F2A8D3B8D4E8927
:100B40005F892417350799F1877041F4C101019637
:100B5000E989FA89E20DF31DB4901C01B7FE1EC0AD
:100B6000D401ED91FC91BB81B13061F40480F58139
:100B7000E02D2E813F814C895D896A8D7B8DC4017A
:100B800009950CC00684F785E02DEE80FF80860174
:100B900096014D855E85B201C4010995BB0CEA8DB5
:100BA000FB8D3196FB8FEA8F4C0C5D1CC3CF5C81B3
:100BB0008885580F5C83A39499CF6B960FB6F894F1
:100BC000DEBF0FBECDBFDF91CF911F910F91FF9080
:100BD000EF90DF90CF90BF90AF909F908F907F90DD
:100BE0006F905F904F903F902F900895AF92BF927B
:100BF000CF92EF92FF920F931F93CF93DF93EC016D
:100C0000262F888D998D009709F042C06A3069F4CB
:100C10002C898E859F8538E0239F800D911D11249E
:100C20009F878E871D861C86ACC06D3009F4A9C0D5
:100C30008E898823C1F03C898C859D8546E0349F50
:100C4000800D911D112448855985841795075CF006
:100C50001D861C868E859F85E8E03E9F800D911D38
:100C600011249F878E87EA88FB88088919894E8519
:100C70005F856C857D85CC88CE010E9450042C89CF
:100C80008C859D85F6E02F9F800D911D112441C01C
:100C90006A3079F41D861C862C89FC013696E49115
:100CA0008E859F852E9F800D911D11249F878E8795
:100CB00068C06D3009F465C0AC014C5F5F4FFA014C
:100CC0003491631708F45DC03196E491E61708F497
:100CD00058C0FA014491362F341BFC013296A5907E
:100CE000B490F7E03F9FA00CB11C1124F50132969F
:100CF00034913196E491332311F0E1110DC0F501E7
:100D00003496E4912C898C859D85E29F800D911D00
:100D100011249D878C8735C0F501359644915E89F5
:100D2000552311F16C89E32FF0E0E40FF11D47FD2D
:100D3000FA956E9FD0016F9FB00D11244C855D8593
:100D40004A0F5B1FE885F9854E175F076CF01D861B
:100D50001C86FC013696E4918E859F856E9F800DE2
:100D6000911D11249F878E87EA88FB88088919893D
:100D70004E855F856C857D85CC88CE010E945004B0
:100D8000BECF81E090E0DF91CF911F910F91FF9056
:100D9000EF90CF90BF90AF900895EF92FF920F9396
:100DA0001F93DC01ED91FC9111971A960D911C9106
:100DB0001B9718962D913C9119970684F785E02D85
:100DC0007B0140E050E060E070E009951F910F91D9
:100DD000FF90EF9008956F927F928F929F92AF92C3
:100DE000BF92CF92DF92EF92FF920F931F93CF9318
:100DF000DF936C015A014801EB013B01620E731E47
:100E0000C615D70574F4D601ED91FC910084F185E7
:100E1000E02D87019401A501BE01C6010995219627
:100E2000EFCFDF91CF911F910F91FF90EF90DF9067
:100E3000CF90BF90AF909F908F907F906F900895CC
:100E4000EF92FF920F931F93DC01ED91FC91260F1F
:100E5000371F215031090680F781E02D78018A0182
:100E600009951F910F91FF90EF900895EF92FF92D7
:100E70000F931F937801DC01ED91FC91240F351F36
:100E80008901015011090680F781E02D9B01099528
:100E90001F910F91FF90EF9008956F927F928F9224
:100EA0009F92AF92BF92CF92DF92EF92FF920F93F9
:100EB0001F93CF93DF93EC014B015A016901380175
:100EC000E881F9810284F385E02D87010995E881A5
:100ED000F981A501460D571D415051090284F38542
:100EE000E02D9601B401CE010995E881F9810084D5
:100EF000F185E02D9301A501B401CE010995E881AA
:100F0000F981C80CD91CB601615071090084F185C2
:100F1000E02D9301A501CE010995DF91CF911F919D
:100F20000F91FF90EF90DF90CF90BF90AF909F9088
:100F30008F907F906F9008952F923F924F925F9283
:100F40006F927F928F929F92AF92BF92CF92DF92D9
:100F5000EF92FF920F931F93CF93DF9300D01F92D6
:100F6000CDB7DEB74C017B836A836A015901170153
:100F70009801241B350B37FF03C0319521953109AA
:100F8000C5014A815B81841B950B97FF03C0919536
:100F90008195910951E059838217930714F01982C2
:100FA0000BC09A2D8B2D5801092F182F9A818B81F8
:100FB000DB82CA82C92ED82E8A819B81A816B906E7
:100FC0005CF49C2D8D2D6801092F182F9A818B813F
:100FD000BB82AA82A92EB82E2501AA81BB814A1AFA
:100FE0005B0A38016C187D0877FE03C07194619428
:100FF0007108720157FE03C0BFEFEB1AFB0AF594AC
:10100000E794C016D1061CF00FEF1FEF1FC001E0E0
:1010100010E01CC0D401ED91FC91B9810480F581F0
:10102000E02D9101BB23C1F04A815B81B601C4016F
:101030000995E618F708F7FE04C0C00ED11EE40CAF
:10104000F51CEA81FB813196FB83EA834A815B814F
:10105000A416B506FCF604C0A6016A817B81E7CF21
:101060000F900F900F90DF91CF911F910F91FF90F4
:10107000EF90DF90CF90BF90AF909F908F907F9038
:101080006F905F904F903F902F9008950F931F9314
:10109000CF93DF93DC0155968C915597823071F098
:1010A000833009F1813009F08CC01496ED91FC91E8
:1010B0001597E41BF50BE21BF30B20C01496ED9182
:1010C000FC911597CF01861B970BBC0161507109EC
:1010D0001696ED91FC911797CF01841B950BAC01EF
:1010E000421B530B6EC01696ED91FC911797CF01E2
:1010F000861B970BBC0161507109FA0177FD1BC17A
:1011000016968D919C911797681779070CF013C16B
:10111000F7FF04C02E0F3F1FE0E0F0E014968D9122
:101120009C911597AF01420F531F841795071CF42C
:101130009C012E1B3F0B121613060CF0FCC0CB01BA
:1011400077FD079643E0959587954A95E1F7969543
:10115000982F882797958795E80FF91FEF5FFE4F27
:101160006770772781E090E001C0880F6A95EAF701
:10117000482F0130110541F088F00230110509F0C7
:10118000DAC02E0F3F1F15C02E0F3F1FE217F307C7
:1011900009F4D1C08081842B8193F8CF80952E0FE4
:1011A0003F1FE217F30709F4C6C09081982391937B
:1011B000F8CFE217F30709F4BEC08081842781933A
:1011C000F8CF77FDB8C014968D919C91159768174C
:1011D00079070CF0B0C057FF04C0240F351F40E062
:1011E00050E016968D919C911797FA01E20FF31F2C
:1011F0008E179F071CF49C01241B350B1216130637
:101200000CF099C0A22F842F86958695869590E83C
:10121000899F600D711D1124FB01EF5FFE4F477028
:10122000A9F198E0941B492F50E0EA01C75FDA4F1B
:101230008881291790F4421B51092FEF30E002C03A
:10124000359527954A95E2F782230130110541F043
:1012500068F00230110589F06EC00130110519F4F3
:101260002081822B0CC00130110520F48095208153
:10127000822305C00230110531F42081822780834A
:10128000A91708F458C0A91BE058FF4FA83048F12F
:101290000230110559F4EF018A2F988190959883B7
:1012A000C058DF4F88508830C0F730C081E001302F
:1012B000110509F080E08195EF019A2F8883C058CD
:1012C000DF4F98509830D0F788EF8A0F8695869533
:1012D000869590E8899FE00DF11D1124E058FF4F9D
:1012E000A770AA2341F1B0E0AF5FBA4F8C910130F3
:1012F000110529F038F002301105D1F01CC09081A1
:10130000892B18C080959081892314C088EF8A0F9B
:1013100086958695869590E8899FE00DF11D1124AC
:10132000E058FF4FA77039F0B0E0AF5FBA4F8C9133
:10133000908189278083DF91CF911F910F9108952C
:10134000833081F028F4813099F08230A1F0089543
:101350008730A9F08830B9F08430D1F480918000D2
:101360008F7D03C0809180008F77809380000895E7
:1013700084B58F7702C084B58F7D84BD0895809138
:10138000B0008F7703C08091B0008F7D8093B00054
:101390000895CF93DF9390E0FC01E959F94F249130
:1013A000FC01ED5AF94F8491882361F190E0880F98
:1013B000991FFC01EE58FA4FC591D491FC01E859F0
:1013C000FA4FA591B491611109C09FB7F894888133
:1013D000209582238883EC912E230BC0623061F428
:1013E0009FB7F8943881822F809583238883EC916E
:1013F0002E2B2C939FBF06C08FB7F894E8812E2B1D
:1014000028838FBFDF91CF9108958F929F92AF92E3
:10141000BF92CF92DF92EF92FF926B017C010E940C
:1014200073034B015C01C114D104E104F104F1F038
:101430000E947303DC01CB0188199909AA09BB0931
:10144000883E9340A105B10570F321E0C21AD1088E
:10145000E108F10888EE880E83E0981EA11CB11CFB
:10146000C114D104E104F10419F7DDCFFF90EF902E
:10147000DF90CF90BF90AF909F908F9008952FB73F
:10148000F8946091A2057091A3058091A4059091B4
:10149000A5052FBF08951F920F920FB60F9211242A
:1014A0002F933F938F939F93AF93BF938091A20508
:1014B0009091A305A091A405B091A5053091A10537
:1014C00023E0230F2D3720F40196A11DB11D05C087
:1014D00026E8230F0296A11DB11D2093A10580933C
:1014E000A2059093A305A093A405B093A5058091B0
:1014F000A6059091A705A091A805B091A905019610
:10150000A11DB11D8093A6059093A705A093A805E2
:10151000B093A905BF91AF919F918F913F912F916A
:101520000F900FBE0F901F9018951F920F920FB63D
:101530000F9211242F933F934F935F936F937F9359
:101540008F939F93AF93BF93EF93FF938091B900D5
:10155000887F803609F49CC068F5883209F45BC046
:1015600090F4803109F454C038F4882309F4F6C0AB
:10157000883009F44DC0F6C0883109F44CC080327F
:1015800009F45DC0EFC0803409F468C048F48033CA
:1015900009F455C0883309F0E5C08093EC05D8C044
:1015A000803509F44FC0883509F45DC0883409F0EE
:1015B000D9C0D6C0883909F4C7C0A8F4883709F45F
:1015C00067C038F4883609F463C0803709F460C016
:1015D000C9C0883809F4B8C0803909F45FC08038C0
:1015E00009F0C0C05BC0803B09F486C038F4803A83
:1015F00009F466C0883A09F47FC0B4C0803C09F49D
:10160000A7C0883C09F4A4C0883B09F48AC0AAC0DA
:101610008091C90510C09091EB058091EA0598175B
:1016200070F5E091EB0581E08E0F8093EB05F0E023
:10163000E653FA4F80818093BB0085EC86C080938F
:10164000EC058EC0E091EB0581E08E0F8093EB05F9
:101650008091BB00F0E0E653FA4F80839091EB0558
:101660008091EA056EC0E091EB0581E08E0F8093DA
:10167000EB058091BB00F0E0E653FA4F8083809148
:10168000ED0581116DC081E08093C80584EA61C0D9
:1016900083E08093EE051092A005CFCF8091A00546
:1016A000803208F051C0E091A00581E08E0F809358
:1016B000A0058091BB00F0E0E058FA4F8083BDCFD9
:1016C00085EC8093BC001092EE058091A0058032DD
:1016D00030F4E091A005F0E0E058FA4F10826091FC
:1016E000A00570E0E0917E05F0917F0580E895E02F
:1016F00009951092A00536C084E08093EE05109203
:101700007D0510927C05E0917A05F0917B050995A5
:1017100080917C05811105C081E080937C05109249
:101720005A05E0917D0581E08E0F80937D05F0E004
:10173000E65AFA4F80818093BB0090917D0580919D
:101740007C05981708F479CF85E88093BC000AC01F
:1017500085EC8093BC001092EE0504C01092EC055D
:101760000E949803FF91EF91BF91AF919F918F914C
:101770007F916F915F914F913F912F910F900FBE8D
:101780000F901F901895CF92DF92EF92FF920F93D8
:101790001F93CF93DF936C017A018B01C0E0D0E0FF
:1017A000CE15DF0589F0D8016D918D01D601ED913F
:1017B000FC910190F081E02DC6010995892B11F46F
:1017C0007E0102C02196ECCFC701DF91CF911F911E
:1017D0000F91FF90EF90DF90CF9008950E944E19E7
:1017E0001F93CF93DF93282F30E0F901E558F94F8D
:1017F0008491F901E959F94FD491F901ED5AF94F62
:10180000C491CC23C9F0162F81110E94A009EC2F9E
:10181000F0E0EE0FFF1FE859FA4FA591B4918FB792
:10182000F894111105C09C91ED2FE095E92302C0B9
:10183000EC91ED2BEC938FBFDF91CF911F91089529
:101840000F931F93CF93DF93DC01FB0155968C918F
:101850005597823081F0833019F1813051F514961B
:101860008D919C911597BC01641B750BAB01415088
:101870005109BF0181C014966D917C911597CB01E0
:101880008E1B9F0BFC0116968D919C911797BC01A6
:10189000641B750BAB0141505109E21BF30B09C0EE
:1018A00016966D917C9117976E1B7F0B621B730BC5
:1018B00063C057FD1CC116968D919C9117974817D0
:1018C00059070CF014C1F7FF04C02E0F3F1FE0E0D2
:1018D000F0E014968D919C911597BF01620F731FD4
:1018E000861797071CF49C012E1B3F0B121613063C
:1018F0000CF0FDC0CA0157FD079663E095958795EA
:101900006A95E1F79695982F882797958795E80F20
:10191000F91FEF5FFE4F4770552781E090E001C04F
:10192000880F4A95EAF7482F0130110541F088F0F9
:101930000230110509F0DBC02E0F3F1F15C02E0F1E
:101940003F1FE217F30709F4D2C08081842B8193F3
:10195000F8CF80952E0F3F1FE217F30709F4C7C099
:10196000908198239193F8CFE217F30709F4BFC051
:10197000808184278193F8CF57FDB9C014968D914B
:101980009C911597481759070CF0B1C077FF04C018
:10199000260F371F60E070E016968D919C91179787
:1019A000FB01E20FF31F8E179F071CF49C01261BFF
:1019B000370B121613060CF09AC0A22F862F8695AD
:1019C0008695869590E8899F400D511D1124FA0156
:1019D000EF5FFE4F6770A9F198E0961B492F50E02A
:1019E000EA01C75FDA4F8881291790F4421B510939
:1019F0002FEF30E002C0359527954A95E2F7822314
:101A00000130110541F068F00230110589F06FC016
:101A10000130110519F42081822B0CC00130110511
:101A200020F480952081822305C00230110531F415
:101A3000208182278083A91708F459C0A91BE05888
:101A4000FF4FA83048F10230110559F4EF018A2FF9
:101A5000988190959883C058DF4F88508830C0F7A0
:101A600031C081E00130110509F080E08195EF017E
:101A70009A2F8883C058DF4F98509830D0F788EF5E
:101A80008A0F86958695869560E8869FE00DF11D04
:101A90001124E058FF4FA770AA2349F1B0E0AF5FCF
:101AA000BA4F8C910130110529F038F00230110540
:101AB000D9F01DC09081892B03C080959081892326
:101AC000808315C088EF8A0F86958695869570E885
:101AD000879FE00DF11D1124E058FF4FA77039F0EA
:101AE000B0E0AF5FBA4F8C9190818927E9CFDF9149
:101AF000CF911F910F910895FC0177FD9AC08085C9
:101B00009185681779070CF094C057FD92C08285C3
:101B10009385481759070CF08CC08589823009F0ED
:101B20007CC084819581DC01A61BB70BBD0161508F
:101B3000710986819781FC01E41BF50BAF014150CF
:101B400051090AC0813041F484819581841B950B31
:101B5000AB01BC01615071092130310529F008F158
:101B600022303105E1F10895FA0157FD3796A3E0DF
:101B7000F595E795AA95E1F7F695FE2FEE27F795EF
:101B8000E7956E0F7F1FFB01EF5FFE4F47705527F4
:101B900081E090E001C0880F4A95EAF79081892B97
:101BA0003AC0FA0157FD379623E0F595E7952A9557
:101BB000E1F7F695FE2FEE27F795E7956E0F7F1F5D
:101BC000FB01EF5FFE4F4770552781E090E001C0B9
:101BD000880F4A95EAF78095908189231CC0FA0105
:101BE00057FD379683E0F595E7958A95E1F7F695E9
:101BF000FE2FEE27F795E7956E0F7F1FFB01EF5F36
:101C0000FE4F4770552781E090E001C0880F4A954C
:101C1000EAF79081892780830895833009F092CF75
:101C200086819781861B970BBA01AC0141505109FF
:101C300093CF089560E082E00E94F00B60E084E0C2
:101C40000E94F00B61E082E00E94F00B60E082E015
:101C50000C94F00B60E082E00E94F00B61E084E005
:101C60000E94F00B61E082E00E94F00B60E082E0F5
:101C70000C94F00B0F931F93CF93DF93C62FDEE0EE
:101C8000D80F8091C70526E330E0281B31099091D9
:101C90000001692F70E000E010E040E050E08EE1CC
:101CA00096E00E9446086D2F70E001E010E026E308
:101CB00030E040E050E08EE196E00E944608D0938C
:101CC0000001C63320F085E38093C70502C0C093AE
:101CD000C705DF91CF911F910F910C9418121F939C
:101CE000CF93DF938F5D91409C01369527952F719F
:101CF000EC0156E0D695C7955A95E1F7D695DC2FBD
:101D0000CC27D795C795C22B61E083E00E94F00BEA
:101D100060E083E00E94F00B0E942A0E0E941A0EDF
:101D20000E941A0E0E941A0E0E942A0E10E1C0FF95
:101D300003C00E942A0E02C00E941A0ED695C795B3
:101D40001150A9F70E941A0E0E941A0E0E941A0E34
:101D50000E941A0E61E083E00E94F00B60E083E0D5
:101D60000E94F00B60E082E00E94F00B60E084E0F3
:101D7000DF91CF911F910C94F00B92EF980F8E3062
:101D800008F0892F8770982F906480E240E050E03F
:101D900090937C0020917A00206420937A00209117
:101DA0007A0026FDFCCF209178006091790030E028
:101DB000362B420F531F815059F7CA0125E09695E3
:101DC00087952A95E1F70895EF92FF920F931F935D
:101DD000CF938FE00E94BD0E833822E0920708F077
:101DE00041C0883222E09207C8F0BC0167527240BD
:101DF00080E090E00E94531820E030E048EB52E48D
:101E00000E94B21720E030E048EC52E40E94E11852
:101E10000E942418C62F653010F00AC0C0E082E38B
:101E200090E09093AF058093AE0588EC90E00AC0F7
:101E30006F3068F484E690E09093AF058093AE0530
:101E400088EE93E09093AD058093AC0514C06931A2
:101E500050F488EC90E09093AF058093AE0588EB4A
:101E60009BE0F0CFC3E61092AF051092AE05109242
:101E7000AD051092AC05EE24E394F12C02E010E0E5
:101E800024E030E040E250E06DE370E08EE196E067
:101E90000E944D0704E110E02AE030E042E250E009
:101EA0006AE370E08EE196E00E944D07E12CF12C90
:101EB00000E110E026E030E044E250E06CE370E046
:101EC0008EE196E00E944D07C63580F0EE24E39443
:101ED000F12C02E010E024E030E045E250E06DE358
:101EE00070E08EE196E00E944D0702C0C23480F09F
:101EF000EE24E394F12C02E010E024E030E048E22C
:101F000050E06DE370E08EE196E00E944D0702C064
:101F1000CE3280F0EE24E394F12C02E010E024E0D5
:101F200030E04BE250E06DE370E08EE196E00E941D
:101F30004D0702C0CA3180F0EE24E394F12C02E098
:101F400010E024E030E04EE250E06DE370E08EE11E
:101F500096E00E944D0702C0C63078F0EE24E3946C
:101F6000F12C02E010E024E030E041E350E06DE3CA
:101F700070E08EE196E00E944D07CF911F910F9186
:101F8000FF90EF900895E82FF0E0E250FA4FE491CF
:101F9000F0E0EE0FFF1FE255FA4F859194910895FE
:101FA000AF92BF92CF92DF92EF92FF920F931F9367
:101FB000CF93DF93CDB7DEB766970FB6F894DEBF49
:101FC0000FBECDBFB82E603B710590F0633182E04B
:101FD000780788F46F5A710923E6269FC001279F6E
:101FE000900D112463E671E00E9476176B0106C024
:101FF000C12CD12C03C053E6C52ED12C0E948E12C9
:1020000081E090E0909331068093300690932F0604
:1020100080932E068AE090E090932B0680932A0608
:1020200010922D0610922C0683E0809332068B2DA1
:102030000E94C30FBC0180E090E04AE00E94CC12F5
:102040008BE490E090932B0680932A0687E090E043
:1020500090932D0680932C0632E0A32EA092320698
:1020600084E496E00E949912EE24E394F12C08E1B6
:1020700010E02FE730E048E150E060E070E08EE1F2
:1020800096E00E949C0710922B0610922A068BE184
:1020900090E090932D0680932C0681E08093320689
:1020A00082E396E00E94991210922B0610922A0663
:1020B00087E290E090932D0680932C06A092320642
:1020C00080E396E00E9499128EE296E00E949912B7
:1020D0000B2D10E002501A4FF8018491883010F453
:1020E00091E40DC0803110F492E409C0883110F4FD
:1020F00095E405C0803210F496E401C092E599831E
:1021000087708F5C8A831B82CE0101967C010E94BE
:10211000BA128AE296E00E9499129AE0C916D10496
:1021200020F488E296E00E949912B60180E090E0E7
:102130004AE00E94CC1210922B0610922A0689E3E4
:1021400090E090932D0680932C0681E080933206D8
:10215000F8010491083018F469E375E011C000310A
:1021600018F460E475E00CC0083118F467E475E019
:1021700007C0003218F46EE475E002C063E575E054
:10218000C7010E945319F70101900020E9F7319728
:10219000EE19FF09FF27D701AE0FBF1F07700F5CB5
:1021A0000C93EC0FFD1F1282F70101900020E9F75C
:1021B000C7018E1B9F0B469696958795182F112366
:1021C00031F086E296E00E9499121150F8CFC701D3
:1021D0000E94BA120E94E40E0E94181266960FB670
:1021E000F894DEBF0FBECDBFDF91CF911F910F914D
:1021F000FF90EF90DF90CF90BF90AF900895EF9257
:10220000FF920F931F93CF93DF938C01C0E0D0E038
:102210008CE2E82EFF24F3948C2F0E94C30F801BC6
:10222000910B1816190634F48C2F0E94C30F801BD3
:10223000910B07C08C2F0E94C30F9801281B390BEC
:10224000C9018E159F0514F4DC2F7C01CF5FC832C5
:1022500019F78D2FDF91CF911F910F91FF90EF9084
:1022600008952091110690914006213208F04AC04D
:102270008091EE058111FCCF32E03093EE0531E024
:102280003093ED053FEF3093EC051092EB05209372
:10229000EA05A1EFB5E04AEC55E0FA013E2F341B08
:1022A000321718F43D913193F9CF1092C90520915E
:1022B000C905990F922B9093C9059091C80591304B
:1022C00061F41092C8059091C9059093BB0090915C
:1022D000BC0093FDF8CF95EC01C095EE9093BC0047
:1022E0009091EE059230E1F39091EC059F3F79F0EB
:1022F0008091EC05803241F08091EC05803331F023
:1023000084E005C081E003C082E001C083E0109258
:10231000F005109211061092EF0508950F931F9388
:10232000CF93DF9390913F06992339F08EBD000043
:102330000DB407FEFDCF8EB51CC0C82F08E010E01D
:10234000D0E860E080913B060E94F00B8D2F8C233B
:1023500011F061E001C060E080913A060E94F00B4C
:1023600061E080913B060E94F00BD6950150110967
:1023700041F7DF91CF911F910F910895CF93DF9394
:10238000E0E8F6E08491ECE6F6E0D491E8E5F6E0EA
:10239000C491CC2391F081110E94A009EC2FF0E0B0
:1023A000EE0FFF1FE75BF94FA591B491EC91ED2380
:1023B00081E090E021F480E002C080E090E0DF91D5
:1023C000CF910895CF93C82F80913A068F3FC1F0E7
:1023D00061E080913E060E94F00B60E080913C0637
:1023E0000E94F00B60E080913E060E94F00B8C2F63
:1023F0000E948E1161E080913E06CF910C94F00B0B
:102400008091380691E09093EF05809340061092FA
:10241000F0051092110660E082E196E00E9420042F
:102420006C2F82E196E00E942004CF910C94311130
:10243000EF92FF920F931F93CF93DF9381E20E945D
:10244000E21180E00E94E2118FE70E94E21182E235
:102450000E94E21180E00E94E21187E00E94E211F6
:1024600080913A068F3F19F161E080913E060E940B
:10247000F00B61E080913C060E94F00B60E08091DF
:102480003E060E94F00BC1E0D1E089910E948E11BE
:1024900085E0C130D807C9F761E080913E06DF9141
:1024A000CF911F910F91FF90EF900C94F00BF09053
:1024B000B8008CE08093B800C1E0D1E0EE24E39452
:1024C00080913806E092EF05809340061092F00567
:1024D0001092110660E482E196E00E94200400E080
:1024E00010E0FE01E00FF11F608182E196E00E94A2
:1024F00020040F5F1F4F0031110599F70E94311121
:10250000609685E0C130D807D9F6F092B800DF9127
:10251000CF911F910F91FF90EF90089580E094E08C
:10252000E1E0F1E0DF019C011D9221503040E1F734
:1025300008950F931F93CF93DF938C01C0E0D0E0F9
:10254000F801EC0FFD1F6491662371F0E0911E0607
:10255000F0911F060190F081E02D8EE196E0099543
:10256000892B11F02196ECCFCE01DF91CF911F91F5
:102570000F910895009769F0FC0101900020E9F7A0
:102580003197AF01481B590BBC018EE196E00C94CA
:10259000C30B80E090E008958F929F92AF92BF921C
:1025A0000F931F93CF93DF93CDB7DEB7A1970FB6ED
:1025B000F894DEBF0FBECDBF19A2423008F44AE046
:1025C0008E010F5D1F4F842E912CA12CB12CA501E3
:1025D00094010E948A17E62FB901CA01015011091E
:1025E000EA3014F4E05D01C0E95CD801EC93232BE0
:1025F000242B252B61F7C8010E94BA12A1960FB6B1
:10260000F894DEBF0FBECDBFDF91CF911F910F9128
:10261000BF90AF909F908F900895789484B582601A
:1026200084BD84B5816084BD85B5826085BD85B576
:10263000816085BD80916E00816080936E001092F4
:10264000810080918100826080938100809181006F
:102650008160809381008091800081608093800000
:102660008091B10084608093B1008091B00081605E
:102670008093B00080917A00846080937A0080918A
:102680007A00826080937A0080917A0081608093E2
:102690007A0080917A00806880937A001092C1005D
:1026A00061E08DE00E94C90960E08DE00E94F00BBE
:1026B00060E085E00E94C90962E085E00E94F00BBD
:1026C00061E086E00E94C90961E083E00E94C909D7
:1026D00061E084E00E94C90961E082E00E94C909CA
:1026E00081E090E00E945A198E3E09F09AC380E082
:1026F00090E00E945A198093C5058091C5050E94FB
:10270000C30F0E946F0E82E0809339068CE38093A2
:10271000380680913A068F3F09F455C061E08091F8
:102720003C060E94C90961E080913E060E94C909E9
:1027300080913F0681110AC061E080913A060E94B3
:10274000C90961E080913B060E94C90980913F065A
:10275000882309F45FC0CFB7F8948091B005811148
:1027600027C0EDE5F6E08491E1E7F6E09491E82FEB
:10277000F0E0EE0FFF1FEE58FA4FA591B491EC91E7
:10278000E92321F461E08AE00E94F00B61E08AE035
:102790000E94C9098CB580618CBD8CB580648CBDEC
:1027A00061E08DE00E94C90961E08BE00E94C909E7
:1027B0008091B0058F5F8093B005CFBF80E58CBD61
:1027C00081E08DBD27C01092AB051092AA05109232
:1027D000F005109211061092EE0581E08093ED0550
:1027E0001092C80561E082E10E94F00B61E083E194
:1027F0000E94F00B8091B9008E7F8093B900809188
:10280000B9008D7F8093B90088E48093B80085E497
:102810008093BC0080913D0687FD1EC061E00E9450
:10282000C90961E080913D060E94F00B61E070E013
:1028300080E090E00E94050A60E080913D060E94E1
:10284000F00B6AE070E080E090E00E94050A61E031
:1028500080913D060E94F00B8EEA0E94E21185ED08
:102860000E94E21180E80E94E21188EA0E94E211CF
:102870008FE30E94E21183ED0E94E21180E00E944A
:10288000E21180E40E94E2118DE80E94E21184E1ED
:102890000E94E21180E20E94E21180E00E94E211B7
:1028A00081EA0E94E21188EC0E94E2118AED0E9406
:1028B000E21182E10E94E21181E80E94E2118FECB4
:1028C0000E94E21189ED0E94E21181EF0E94E21163
:1028D0008BED0E94E21180E40E94E21184EA0E94E2
:1028E000E21186EA0E94E2118FEA0E94E2110E9440
:1028F0008E120E9418120E943F0ADC01CB01805FF9
:10290000984DAF4FBF4F8093B1059093B205A09300
:10291000B305B093B4054AE0242E312C53E0A52E24
:10292000B12C6AE0862E912C0E94BE11019759F1BC
:10293000C0E0D0E00E94BE11892B41F4219665E0F1
:1029400070E080E090E00E94050AF4CFCE01889705
:10295000889728F0C035D10520F014E003C013E0BB
:1029600001C011E0C0E0D0E00E94BE11019769F4FF
:102970002196C932D10581F065E070E080E090E0F9
:102980000E94050AF1CF80E008C0649728F40E94F5
:10299000BE11892B09F448C2812F8093C60582306D
:1029A00009F446C120F4813009F43AC153C183309F
:1029B00009F4BFC0843009F04DC10E948E1281E03D
:1029C00090E0909331068093300690932F06809389
:1029D0002E0690922B0680922A0610922D061092B7
:1029E0002C0683E08093320683E995E00E949912D9
:1029F0008BE490E090932B0680932A0687E090E08A
:102A000090932D0680932C0682E0809332068EE808
:102A100095E00E949912EE24E394F12C08E110E075
:102A20002FE730E048E150E060E070E08EE196E0B2
:102A30000E949C0710922B0610922A068BE190E0D0
:102A400090932D0680932C0681E0809332068CE7CC
:102A500095E00E9499120E94E40E0E941812809143
:102A6000C5050E94C30F8C01EC012A96C0FF219678
:102A70007E012CE3D22E612C712C85E3E81687E1D0
:102A8000F80620F495E0E90EF11C04C09DE0E92E63
:102A900096E1F92EC7010E946F0E69E170E080E0B7
:102AA00090E00E94050A84E10E94BD0E2C010E9464
:102AB000BE11892BB1F16414750410F4E7013201E1
:102AC000DA94D11009C06E017E0184E1E81AF108A0
:102AD0006496612C712C05C09AEF4916510468F276
:102AE000F2CFC7010E946F0E69E170E080E090E0D4
:102AF0000E94050A84E10E94BD0E2C010E94BE11B5
:102B0000892B79F06414750410F46701320182E0B6
:102B1000E80EF11CEC16FD0621F7C6010E946F0EAF
:102B20008601C8010E94FF108093C50560E070E037
:102B300065C08091C5050E94C30FEC010E948E12F2
:102B4000EE24E394F12C07E310E02FE730E047E3B5
:102B500050E060E070E08EE196E00E949C0781E02A
:102B600090E0909331068093300690932F068093E7
:102B70002E068093320610922B0610922A0689E3C5
:102B800090E090932D0680932C0688E995E00E94B2
:102B9000991260E080E00E943A0E0E94BE11892BDB
:102BA00031F12396CA3397E1D90710F0CDE0D6E191
:102BB000CE010E946F0E69E170E080E090E00E941B
:102BC000050A84E10E94BD0E8C589109B1010E9452
:102BD0007617262F89E397E18C1B9D0BB5010E9488
:102BE0007617862F622F94E6981B892FD4CFCE01BB
:102BF0000E94FF1060E070E08091C5050E94D00F38
:102C00000E943F0ADC01CB014996A11DB11D8093B2
:102C1000C1059093C205A093C305B093C4051AC023
:102C2000C091C505C73210F4CF5F08C0C0E006C030
:102C3000C091C505C150C73208F0C7E2C093C505B1
:102C40008C2F0E94C30F0E946F0E60E070E08C2FEB
:102C50000E94D00F0E943F0A0091C1051091C20549
:102C60002091C3053091C4050617170728073907B7
:102C700020F40E948E120E94181284E10E94BD0E60
:102C80009093C0058093BF05BC018091C5050E944B
:102C9000D00F0E943F0ADC01CB0188519C4FAF4FFF
:102CA000BF4F8093C1059093C205A093C305B09315
:102CB000C405C091C5058091BE05C81781F00E946A
:102CC0003F0A0091BA051091BB052091BC053091D7
:102CD000BD05061717072807390708F4ABC0809110
:102CE000AE059091AF05892B09F48BC00E943F0A75
:102CF0000091B6051091B7052091B8053091B9053E
:102D0000061717072807390708F083C081E090915C
:102D1000B505911180E08093B50561E0882309F441
:102D200054C086E00E94C909E1E8F6E0E491E3308E
:102D300019F150F4E130D1F0E230E1F584B5806270
:102D400084BD80E288BD3AC0E73011F1E83049F136
:102D5000E43081F58091800080628093800080E281
:102D600090E090938B0080938A0028C084B580689F
:102D700084BD80E287BD22C08091800080688093FE
:102D8000800080E290E0909389008093880016C0D4
:102D90008091B00080688093B00080E28093B3009F
:102DA0000DC08091B00080628093B00080E280937B
:102DB000B40004C060E086E00E94F00B0E943F0A6D
:102DC0002091AE053091AF050DC086E00E94C90983
:102DD00060E086E00E94F00B0E943F0A2091AC0563
:102DE0003091AD05DC01CB01820F931FA11DB11DF8
:102DF0008093B6059093B705A093B805B093B90535
:102E000008C061E086E00E94C90960E086E00E9497
:102E1000F00B80E090E0892B09F486CD0E94000041
:102E200083CD1092C50569CC0E94BE11892BE1F3B8
:102E300082E0B3CD6C2F80E090E00E9462196EEECC
:102E400081E090E00E9462198091C5058093BE05E3
:102E50000E943F0ADC01CB01805F984DAF4FBF4F0E
:102E60008093BA059093BB05A093BC05B093BD05B4
:102E700036CFE2E1F6E01382128288EE93E0A0E022
:102E8000B0E084839583A683B78385E195E0918341
:102E90008083EEE1F6E01382128220E830E0358391
:102EA000248380E490E0978386833187208793870B
:102EB0008287158A158614861786168681E0848B8C
:102EC0002FEF3FEF338B228B318B208B868B178A32
:102ED000118E108E85E295E0918380838FEF848F31
:102EE00080A3868F858F84E0878F0895AA1BBB1BE4
:102EF00051E107C0AA1FBB1FA617B70710F0A61BFA
:102F0000B70B881F991F5A95A9F780959095BC011A
:102F1000CD010895A1E21A2EAA1BBB1BFD010DC015
:102F2000AA1FBB1FEE1FFF1FA217B307E407F50779
:102F300020F0A21BB30BE40BF50B661F771F881F55
:102F4000991F1A9469F760957095809590959B01EB
:102F5000AC01BD01CF010895EE0FFF1F0590F49164
:102F6000E02D09940E94C6170C94A7180E94A0187F
:102F700058F00E94991840F029F45F3F29F00C9412
:102F8000901851110C94DB180C9496180E94B818E4
:102F900068F39923B1F3552391F3951B550BBB2788
:102FA000AA2762177307840738F09F5F5F4F220FCD
:102FB000331F441FAA1FA9F335D00E2E3AF0E0E8C4
:102FC00032D091505040E695001CCAF72BD0FE2F0E
:102FD00029D0660F771F881FBB1F261737074807A2
:102FE000AB07B0E809F0BB0B802DBF01FF2793585A
:102FF0005F4F3AF09E3F510578F00C9490180C9476
:10300000DB185F3FE4F3983ED4F386957795679598
:10301000B795F7959F5FC9F7880F911D969587958E
:1030200097F90895E1E0660F771F881FBB1F6217AD
:1030300073078407BA0720F0621B730B840BBA0B6B
:10304000EE1F88F7E09508950E94C01888F09F57FA
:1030500098F0B92F9927B751B0F0E1F0660F771FBC
:10306000881F991F1AF0BA95C9F714C0B13091F0B2
:103070000E94DA18B1E008950C94DA18672F782FBF
:103080008827B85F39F0B93FCCF386957795679577
:10309000B395D9F73EF490958095709561957F4FE3
:1030A0008F4F9F4F0895E89409C097FB3EF4909589
:1030B0008095709561957F4F8F4F9F4F9923A9F011
:1030C000F92F96E9BB279395F695879577956795A0
:1030D000B795F111F8CFFAF4BB0F11F460FF1BC0E4
:1030E0006F5F7F4F8F4F9F4F16C0882311F096E977
:1030F00011C0772321F09EE8872F762F05C0662325
:1031000071F096E8862F70E060E02AF09A95660FDD
:10311000771F881FDAF7880F9695879597F9089596
:1031200097F99F6780E870E060E008959FEF80EC7A
:10313000089500240A94161617061806090608951D
:1031400000240A9412161306140605060895092E83
:103150000394000C11F4882352F0BB0F40F4BF2BF2
:1031600011F460FF04C06F5F7F4F8F4F9F4F089532
:1031700057FD9058440F551F59F05F3F71F0479528
:10318000880F97FB991F61F09F3F79F0879508950D
:10319000121613061406551FF2CF4695F1DF08C02C
:1031A000161617061806991FF1CF86957105610549
:1031B00008940895E894BB2766277727CB0197F9F1
:1031C00008950E94F4180C94A7180E94991838F0DA
:1031D0000E94A01820F0952311F00C9490180C94E4
:1031E000961811240C94DB180E94B81870F3959F60
:1031F000C1F3950F50E0551F629FF001729FBB27EE
:10320000F00DB11D639FAA27F00DB11DAA1F649F89
:103210006627B00DA11D661F829F2227B00DA11D3C
:10322000621F739FB00DA11D621F839FA00D611DC2
:10323000221F749F3327A00D611D231F849F600DE3
:10324000211D822F762F6A2F11249F5750409AF00C
:10325000F1F088234AF0EE0FFF1FBB1F661F771F98
:10326000881F91505040A9F79E3F510580F00C9463
:1032700090180C94DB185F3FE4F3983ED4F38695E6
:1032800077956795B795F795E7959F5FC1F7FE2B03
:10329000880F911D9695879597F9089581E090E0A4
:1032A000F8940C947019FB01DC0101900D92002040
:1032B000E1F70895F999FECF92BD81BDF89A99275B
:1032C00080B50895262FF999FECF1FBA92BD81BD12
:1032D00020BD0FB6F894FA9AF99A0FBE0196089598
:0432E000F894FFCF90
:1032E4000E000000000000000000000000000000CC
:1032F40000000000000000000000000000000000CA
:1033040000000000000000000000000000000000B9
:1033140000000000000000000000000000000000A9
:103324008080800000000000000000000000000019
:1033340000008080C0C00000000000000000000009
:103344000000000000000000000000000000000079
:103354000000000000000000000000000000000069
:103364000000000000000000000000000000000059
:10337400000000000080C0E0F0F8FCF8E00000006D
:103384000000000000000000000000000000808039
:103394008080800080800000000080808080800029
:1033A400FFFFFF000000008080808000008080001C
:1033B4000080FFFF8080008080008080808000800B
:1033C400800000000000808000008C8E840000805B
:1033D400F8F8F88000000000000000000000000081
:1033E40000F0F0F0F0F0F0F0F0F0F0F0F0E0E0C019
:1033F4008000E0FCFEFFFFFF7FFFFFFFFFFF0000F8
:10340400000000000000000000000000FEFFC701F3
:1034140001010183FFFF00007CFEC701010101835C
:10342400FFFFFF0038FEC78301010183C7FFFF00D0
:103434000001FFFF010100FFFF0701010100007F00
:10344400FF80000000FFFF7F0000FFFFFF0000017E
:10345400FFFFFF010000000000000000000000006A
:1034640000030F3F7F7FFFFFFFFFFFFFFFE7C7C79B
:103474008F8F9FBFFFFFC3C0F0FFFFFFFFFFFCFC68
:10348400FCFCFCFCFCFCF8F8F0F0E0C000010303D9
:10349400030303010303000000000103030303010A
:1034A40001030100000001030303030101030300FE
:1034B40000000303000000030300000000000000FC
:1034C40001030303030301000000010301000000E2
:1034D40003030100000000000000000000000000E1
:1034E4000000000080C0E0F0F9FFFFFFFFFF3F1F76
:1034F4000F87C7F7FFFF1F1F3DFCF8F8F8F87C7D26
:10350400FFFFFFFFFFFFFFFF7F3F0F07003030008B
:1035140000000000000000000000000000000000A7
:103524000000000000FEFEFC00000000000000009F
:103534000000000000000000000000000000E0C0E7
:103544000000000000000000000000303000000017
:103554000000000000000000000000000000000067
:103564000000C0FEFFFFFFFFFFFFFFFFFF7F7F3F65
:103574001F0F071F7FFFFFF8F8FFFFFFFFFFFEF895
:10358400E0000000010000000000000000FEFE005A
:103594000000FCFEFC0C06060EFCF80000F0F81C13
:1035A4000E0606060CFFFFFF0000FEFE00000000F2
:1035B400FCFEFC00183C7E66E6CE84000006FFFF9D
:1035C4000606FCFEFC0C0606060000FEFE0000C01B
:1035D400F8FC4E4646464E7C7840183C76E6CECC07
:1035E4008000000000000000000000000000000057
:1035F400000000000001070F1F1F3F3F3F3F1F0F48
:10360400030000000000000000000000000F0F0095
:1036140000000F0F0F000000000F0F000003070E43
:103624000C18180C060F0F0F0000010F0E0C180CCD
:103634000F070100040E0C180C0F070000000F0FF9
:1036440000000F0F0F0000000000000F0F0000002B
:1036540007070C0C181C0C060600040E0C180C0FA3
:10366400070000000000000000000000000000004F
:103674000000000000000000000000000000000046
:103684000000000000000000000000000000000036
:103694000000000000000000000000000000000026
:1036A4000000000000000000000000000000000016
:1036B4000000000000000000000000000000000006
:1036C40000000000000000000000000000000000F6
:1036D40000000000000000000000000000000000E6
:1036E40000000103070F1F3F7F0080C0E0F0F8FCDB
:1036F400FE000000002004F003E803D903CB03CA52
:103704000300000000F605C30B7C0D9C074608204F
:103714000C4D07EB06CD064F0442616E6441200058
:1037240042616E6442200042616E64452000495249
:0A373400432000526163652000008D
:00000001FF
